:020000040800F2
:1000000000800120E5200008352100083521000886
:1000100035210008352100083521000800000000C6
:100020000000000000000000000000003521000872
:1000300035210008000000003521000835210008A6
:100040000000000035210008352100083521000896
:1000500035210008352100085D04000881040008EE
:100060003521000835210008A50400080000000023
:100070000000000000000000000000000000000080
:100080000000000000000000352100080000000012
:10009000000000000000000000000000C90400088B
:1000A00035210008352100083521000835210008D8
:1000B0003521000835210008000000003521000826
:1000C00035210008352100083521000835210008B8
:1000D00035210008000000000000000000000000C2
:1000E00035210008352100083521000800000000F6
:1000F0000000000000000000000000000000000000
:100100000000000035210008000000003521000833
:1001100000000000000000000000000000000000DF
:1001200000000000000000000000000000000000CF
:1001300000000000000000000000000000000000BF
:100140000000000000000000000000003521000851
:10015000000000000000000000000000000000009F
:1001600035210008352100080000000000000000D3
:10017000000000000000000000000000000000007F
:100180000000000035210008000000000000000011
:04019000352100080D
:1001940010B5054C237833B9044B13B10448AFF3BD
:1001A40000800123237010BD040000200000000023
:1001B4008021000808B5034B1BB103490348AFF382
:1001C400008008BD00000000080000208021000815
:1001D40080B500AF01220D21042000F0B3F9012203
:1001E4000D21042000F0A0FC01220E21042000F0C7
:1001F400A9F901220E21042000F096FC01220F210E
:10020400042000F09FF901220F21042000F08CFC4F
:1002140000BF80BD80B500AF01220F21042000F093
:1002240065FD01220D21042000F060FD00220E2155
:10023400042000F05BFD00BF80BD80B500AF00224C
:100244000D21042000F052FD00220E21042000F0B4
:100254004DFD00BF80BD80B500AF01220021032009
:1002640000F070F901220021032000F05DFC01225E
:100274000121032000F066F901220121032000F08E
:1002840053FC01220221032000F05CF90122022127
:10029400032000F049FC01220221032000F026FD86
:1002A40000BF80BD80B500AF01220021032000F013
:1002B4001DFD01220121032000F018FD00BF80BDB7
:1002C40080B582B000AF78607B68002B03D07B6878
:1002D400012B0BD015E001220021032000F006FDC4
:1002E40000220121032000F001FD0AE00022002188
:1002F400032000F0FBFC01220121032000F0F6FCA6
:1003040000BF00BF0837BD4680BD000080B400AF09
:10031400054B00221A60044B4FF0FF325A6100BFB4
:10032400BD465DF8047B7047003C014080B483B057
:1003340000AF0346FB71FB790F2B09D8074B1B68F1
:10034400FA79012101FA02F21146044A0B431360BF
:1003540000BF0C37BD465DF8047B7047003C01408C
:1003640080B483B000AF0346FB71FB790F2B0AD82E
:10037400084B1B68FA79012101FA02F2D2431146B3
:10038400044A0B40136000BF0C37BD465DF8047B84
:10039400704700BF003C014080B483B000AF034607
:1003A4000A46FB711346BB71FB790F2B4AD8BB7904
:1003B400072B32D0072B46DC022B02D0052B16D09C
:1003C40041E0244B9B68FA79012101FA02F21146BB
:1003D400204A0B4393601F4BDB68FA79012101FA31
:1003E40002F2D24311461B4A0B40D3602BE0194B57
:1003F400DB68FA79012101FA02F21146154A0B432E
:10040400D360144B9B68FA79012101FA02F2D243BA
:100414001146104A0B40936015E00E4B9B68FA7925
:10042400012101FA02F211460A4A0B439360094B77
:10043400DB68FA79012101FA02F21146054A0B43FD
:10044400D36000E000BF00BF0C37BD465DF8047BFD
:10045400704700BF003C014080B500AF054B1B68EE
:100464009847054B5B69044A43F00103536100BF9D
:1004740080BD00BF20000020003C014080B500AFDB
:10048400054B1B689847054B5B69044A43F002031C
:10049400536100BF80BD00BF24000020003C014028
:1004A40080B500AF054B1B689847054B5B69044A50
:1004B40043F01003536100BF80BD00BF280000203B
:1004C400003C014080B500AF054B1B689847054BC5
:1004D4005B69044A43F02003536100BF80BD00BF41
:1004E4002C000020003C014080B485B000AFF860CF
:1004F400B9607A603B60FB68002B14D0BB68002BAA
:1005040011D07B68002B0ED03B68002B0BD0094A1E
:10051400FB681360084ABB681360084A7B68136071
:10052400074A3B68136000BF1437BD465DF8047B7F
:10053400704700BF20000020240000202800002075
:100544002C00002080B483B000AF0346FB710B463F
:10055400BB7113467B71FB79052B00F2D98201A292
:1005640052F823F0810500086B06000853070008C1
:100574003B0800082F090008170A00087B79032BA1
:1005840000F2BB8201A252F823F000BFA1050008CB
:10059400D50500080706000839060008AD4B1B689E
:1005A400BA795200012101FA02F2D2431146A94A52
:1005B4000B401360A74B1B68BA795200013201212A
:1005C40001FA02F2D2431146A24A0B40136049E0F9
:1005D400A04B1B68BA795200012101FA02F21146BC
:1005E4009C4A0B4313609B4B1B68BA79520001323F
:1005F400012101FA02F2D2431146964A0B401360DC
:1006040030E0944B1B68BA795200012101FA02F2DE
:10061400D24311468F4A0B4013608E4B1B68BA7944
:1006240052000132012101FA02F21146894A0B43B8
:10063400136017E0874B1B68BA795200012101FA55
:1006440002F21146834A0B431360824B1B68BA794A
:1006540052000132012101FA02F211467D4A0B4394
:10066400136000BF49E27B79032B00F2488201A2A8
:1006740052F823F089060008BD060008EF060008BA
:1006840021070008744B1B68BA795200012101FA52
:1006940002F2D2431146704A0B4013606E4B1B6842
:1006A400BA7952000132012101FA02F2D243114611
:1006B400694A0B40136049E0674B1B68BA795200E2
:1006C400012101FA02F21146634A0B431360624BA3
:1006D4001B68BA7952000132012101FA02F2D243B5
:1006E40011465D4A0B40136030E05B4B1B68BA79DE
:1006F4005200012101FA02F2D2431146564A0B403C
:100704001360554B1B68BA7952000132012101FA7A
:1007140002F21146504A0B43136017E04E4B1B681C
:10072400BA795200012101FA02F211464A4A0B43F6
:100734001360494B1B68BA7952000132012101FA56
:1007440002F21146444A0B43136000BFD7E17B79A0
:10075400032B00F2D68101A252F823F0710700089E
:10076400A5070008D7070008090800083B4B1B68C9
:10077400BA795200012101FA02F2D2431146374AF2
:100784000B401360354B1B68BA79520001320121CA
:1007940001FA02F2D2431146304A0B40136049E099
:1007A4002E4B1B68BA795200012101FA02F211465C
:1007B4002A4A0B431360294B1B68BA795200013251
:1007C400012101FA02F2D2431146244A0B4013607C
:1007D40030E0224B1B68BA795200012101FA02F27F
:1007E400D24311461D4A0B4013601C4B1B68BA7957
:1007F40052000132012101FA02F21146174A0B4359
:10080400136017E0154B1B68BA795200012101FAF5
:1008140002F21146114A0B431360104B1B68BA795C
:1008240052000132012101FA02F211460B4A0B4334
:10083400136000BF65E17B79032B00F2648101A2A0
:1008440052F823F06508000899080008CB0800084E
:10085400FD080008000002400004024000080240B5
:10086400AE4B1B68BA795200012101FA02F2D2435D
:100874001146AA4A0B401360A84B1B68BA79520070
:100884000132012101FA02F2D2431146A34A0B407C
:10089400136049E0A14B1B68BA795200012101FAA7
:1008A40002F211469D4A0B4313609C4B1B68BA79B4
:1008B40052000132012101FA02F2D2431146974A51
:1008C4000B40136030E0954B1B68BA79520001214C
:1008D40001FA02F2D2431146904A0B4013608F4B47
:1008E4001B68BA7952000132012101FA02F2114661
:1008F4008A4A0B43136017E0884B1B68BA7952008D
:10090400012101FA02F21146844A0B431360834B1E
:100914001B68BA7952000132012101FA02F2114630
:100924007E4A0B43136000BFEDE07B79032B00F29A
:10093400EC8001A252F823F04D0900088109000857
:10094400B3090008E5090008754B1B68BA79520021
:10095400012101FA02F2D2431146714A0B4013609D
:100964006F4B1B68BA7952000132012101FA02F27D
:10097400D24311466A4A0B40136049E0684B1B6836
:10098400BA795200012101FA02F21146644A0B437A
:100994001360634B1B68BA7952000132012101FADA
:1009A40002F2D24311465E4A0B40136030E05C4BC6
:1009B4001B68BA795200012101FA02F2D2431146AE
:1009C400574A0B401360564B1B68BA7952000132E8
:1009D400012101FA02F21146514A0B43136017E058
:1009E4004F4B1B68BA795200012101FA02F21146F9
:1009F4004B4A0B4313604A4B1B68BA7952000132CD
:100A0400012101FA02F21146454A0B43136000BF6B
:100A14007BE07B79032B7AD801A252F823F000BF44
:100A2400350A0008690A00089B0A0008CD0A000874
:100A34003C4B1B68BA795200012101FA02F2D243FD
:100A44001146384A0B401360364B1B68BA79520082
:100A54000132012101FA02F2D2431146314A0B401C
:100A6400136049E02F4B1B68BA795200012101FA47
:100A740002F211462B4A0B4313602A4B1B68BA79C6
:100A840052000132012101FA02F2D2431146254AF1
:100A94000B40136030E0234B1B68BA7952000121EC
:100AA40001FA02F2D24311461E4A0B4013601D4B59
:100AB4001B68BA7952000132012101FA02F211468F
:100AC400184A0B43136017E0164B1B68BA7952009F
:100AD400012101FA02F21146124A0B431360114B31
:100AE4001B68BA7952000132012101FA02F211465F
:100AF4000C4A0B43136000BF09E000BF08E000BFCD
:100B040006E000BF04E000BF02E000BF00E000BF59
:100B140000BF0C37BD465DF8047B7047000C0240F3
:100B240000100240001C024080B483B000AF0346B2
:100B3400FB710B46BB7113467B71FB79052B00F2ED
:100B4400C38001A252F823F0650B0008A10B000832
:100B5400DD0B0008190C0008550C0008910C000866
:100B64007B79002B02D0012B0CD0ADE0594B1B68D4
:100B7400BA79012101FA02F2D2431146554A0B40D7
:100B840013600AE0534B1B68BA79012101FA02F29F
:100B94001146504A0B43136000BF95E07B79002B4C
:100BA40002D0012B0CD08FE04B4B1B68BA7901218A
:100BB40001FA02F2D2431146474A0B4013600AE09D
:100BC400454B1B68BA79012101FA02F21146424AE7
:100BD4000B43136000BF77E07B79002B02D0012B1D
:100BE4000CD071E03D4B1B68BA79012101FA02F285
:100BF400D2431146394A0B4013600AE0374B1B6855
:100C0400BA79012101FA02F21146344A0B43136006
:100C140000BF59E07B79002B02D0012B0CD053E0AC
:100C24002F4B1B68BA79012101FA02F2D243114613
:100C34002B4A0B4013600AE0294B1B68BA79012147
:100C440001FA02F21146264A0B43136000BF3BE04F
:100C54007B79002B02D0012B0CD035E0214B1B6893
:100C6400BA79012101FA02F2D24311461D4A0B401E
:100C740013600AE01B4B1B68BA79012101FA02F2E6
:100C84001146184A0B43136000BF1DE07B79002B0B
:100C940002D0012B0CD016E0134B1B68BA7901214A
:100CA40001FA02F2D24311460F4A0B4013600AE0E4
:100CB4000D4B1B68BA79012101FA02F211460A4A66
:100CC4000B43136000BF00BF00BF0C37BD465DF887
:100CD400047B7047040002400404024004080240FC
:100CE400040C024004100240041C024080B483B08F
:100CF40000AF0346FB710B46BB7113467B717B79D6
:100D0400002B5BD1FB79052B00F2B18001A252F8D4
:100D140023F000BF310D0008490D0008610D0008E3
:100D2400790D0008910D0008A90D0008534B1B68AC
:100D3400BA79012101FA02F2D24311464F4A0B401B
:100D4400136094E04E4B1B68BA79012101FA02F258
:100D5400D24311464A4A0B40136088E0494B1B6852
:100D6400BA79012101FA02F2D2431146454A0B40F5
:100D740013607CE0444B1B68BA79012101FA02F24A
:100D8400D2431146404A0B40136070E03F4B1B684E
:100D9400BA79012101FA02F2D24311463B4A0B40CF
:100DA400136064E03A4B1B68BA79012101FA02F23C
:100DB400D2431146364A0B40136058E07B79012B2D
:100DC40054D1FB79052B52D801A252F823F000BF6D
:100DD400ED0D0008030E0008190E00082F0E000880
:100DE400450E00085B0E0008244B1B68BA790121EC
:100DF40001FA02F21146214A0B43136037E0204BFB
:100E04001B68BA79012101FA02F211461C4A0B430C
:100E140013602CE01B4B1B68BA79012101FA02F222
:100E24001146184A0B43136021E0174B1B68BA792B
:100E3400012101FA02F21146134A0B43136016E032
:100E4400124B1B68BA79012101FA02F211460F4ACA
:100E54000B4313600BE00E4B1B68BA79012101FAB6
:100E640002F211460A4A0B43136000E000BF00BFC0
:100E74000C37BD465DF8047B704700BF1400024088
:100E84001404024014080240140C024014100240DE
:100E9400141C024080B483B000AF03463A60FB7177
:100EA4000B46BB71FB79052B00F2B28001A252F80C
:100EB40023F000BFD10E0008070F00083D0F000803
:100EC400730F0008A90F0008DF0F0008BB79072B78
:100ED4000AD8534B1A68BB799B00396801FA03F3AB
:100EE4004F4913430B6094E04E4B1A68BB7903F0EF
:100EF40007039B00396801FA03F34A4913430B6063
:100F040087E0BB79072B0AD8474B1A68BB799B004B
:100F1400396801FA03F3444913430B6079E0434B06
:100F24001A68BB7903F007039B00396801FA03F3DD
:100F34003E4913430B606CE0BB79072B0AD83C4B4A
:100F44001A68BB799B00396801FA03F338491343E3
:100F54000B605EE0374B1A68BB7903F007039B0014
:100F6400396801FA03F3334913430B6051E0BB7949
:100F7400072B0AD8304B1A68BB799B00396801FAF1
:100F840003F32D4913430B6043E02C4B1A68BB79E0
:100F940003F007039B00396801FA03F3274913435D
:100FA4000B6036E0BB79072B0AD8254B1A68BB794E
:100FB4009B00396801FA03F3214913430B6028E0CD
:100FC400204B1A68BB7903F007039B00396801FAC8
:100FD40003F31C4913430B601BE0BB79072B0AD8AE
:100FE400194B1A68BB799B00396801FA03F3164957
:100FF40013430B600DE0154B1A68BB7903F007032C
:101004009B00396801FA03F3104913430B6000E0B5
:1010140000BF00BF0C37BD465DF8047B704700BFBE
:101024002000024024000240200402402404024024
:101034002008024024080240200C0240240C0240F4
:101044002010024024100240201C0240241C0240B4
:1010540080B582B000AF0346FB71FB79002B09D148
:101064000321002000F088FA01220F210320FFF75A
:1010740069FA0BE0FB79012B08D10021002000F074
:101084007BFA012201210020FFF75CFA00BF083738
:10109400BD4680BD80B485B000AF78600023FB609E
:1010A4000DE000237B8103E000BF7B8901337B815A
:1010B4007B89B3F50D7FF7D9FB680133FB60FA68D0
:1010C4007B689A42EDD300BF00BF1437BD465DF87C
:1010D400047B704780B582B000AF0346FB710122E8
:1010E40001210120FFF72EFA012202210120FFF73E
:1010F40029FAFB79002B34D1012203210120FFF7C7
:1011040021FA012204210120FFF71CFA0122052102
:101114000120FFF717FA012206210120FFF712FA36
:101124001E20FFF7B7FF022000F031F80120FFF77F
:10113400B1FF282000F02BF80120FFF7ABFF0E20B1
:1011440000F025F80120FFF7A5FF012000F01FF8AB
:101154000120FFF79FFF062000F019F80320FFF796
:1011640099FF00BF0837BD4680BD80B582B000AF8F
:101174000346FB71012201210120FFF7B7FDFB7932
:10118400184600F016F800BF0837BD4680BD80B58C
:1011940082B000AF0346FB71002201210120FFF75A
:1011A400A5FDFB79184600F004F800BF0837BD46DA
:1011B40080BD80B582B000AF0346FB71FB791B098B
:1011C400DBB203F00103002B05D00122032101202F
:1011D400FFF78CFD04E0002203210120FFF786FDC8
:1011E400FB795B09DBB203F00103002B05D001227C
:1011F40004210120FFF77AFD04E0002204210120EC
:10120400FFF774FDFB799B09DBB203F00103002BAC
:1012140005D0012205210120FFF768FD04E000222A
:1012240005210120FFF762FDFB79DB09DBB203F046
:101234000103002B05D0012206210120FFF756FDF2
:1012440004E0002206210120FFF750FD01220221C3
:101254000120FFF74BFD0120FFF71CFF00220221B4
:101264000120FFF743FD0120FFF714FFFB7903F092
:101274000103002B05D0012203210120FFF736FDD5
:1012840004E0002203210120FFF730FDFB795B0815
:10129400DBB203F00103002B05D00122042101205D
:1012A400FFF724FD04E0002204210120FFF71EFDC6
:1012B400FB799B08DBB203F00103002B05D001226C
:1012C40005210120FFF712FD04E000220521012081
:1012D400FFF70CFDFB79DB08DBB203F00103002B05
:1012E40005D0012206210120FFF700FD04E00022C1
:1012F40006210120FFF7FAFC012202210120FFF759
:10130400F5FC0120FFF7C6FE002202210120FFF7B1
:10131400EDFC0120FFF7BEFE00BF0837BD4680BDCF
:1013240080B584B000AF78600320FFF7B3FE0023DC
:10133400FB7309E0FB7B7A6813441B781846FFF7BC
:1013440014FFFB7B0133FB73FB7B7A6813441B782C
:10135400002BEFD100BF00BF1037BD4680BD000099
:1013640080B588B000AF78600320FFF793FE0023B8
:10137400FB777B68002B1CD13020FFF7F6FE18E0CA
:1013840079681A4BA3FB0123DA0813469B00134424
:101394005B00CA1AFB7F591CF977D2B207F120010E
:1013A4000B4403F8142C7B68104AA2FB0323DB08CC
:1013B4007B607B68002B11D0FB7F0F2BE0D90DE005
:1013C400FB7F013BFB77FB7F07F12002134413F8FB
:1013D400143C3033DBB21846FFF7C7FEFB7F002B0B
:1013E400EED100BF00BF2037BD4680BDCDCCCCCCF4
:1013F40080B582B000AF03460A46FB711346BB7149
:10140400FB79002B02D0012B0AD016E0BB790F2BFD
:1014140010D8BB79803BDBB21846FFF7B8FE09E071
:10142400BB790F2B08D8BB79403BDBB21846FFF7DA
:10143400AEFE01E000BF00E000BF00BF0837BD46BC
:1014440080BD000080B400AF034B044A1A6000BFA3
:10145400BD465DF8047B70470CED00E00006FA051C
:1014640080B483B000AF0346FB71FB791F2B05D812
:10147400FB7901229A40164B1A6023E0FB793F2B3B
:1014840008D8FB79203BFB71FB7901229A40114B70
:101494001A6017E0FB795F2B08D8FB79403BFB719E
:1014A400FB7901229A400C4B1A600BE097F9073044
:1014B400002B07DBFB79603BFB71FB7901229A402F
:1014C400064B1A6000BF0C37BD465DF8047B7047BD
:1014D40000E100E004E100E008E100E00CE100E0EC
:1014E40080B483B000AF03460A46FB711346BB7158
:1014F400BB79602B08D8BB7903F1604303F56443DF
:10150400FA791201D2B21A7000BF0C37BD465DF8E9
:10151400047B704780B483B000AF00237B60144B1E
:101524001B68134A43F00103136002E07B68013334
:101534007B600F4B1B685B0803F00103002B04D195
:101544007B6842F20F729342F0D90A4B1B68094A36
:1015540023F001031360074B1B68064A23F00203C0
:10156400136000BF0C37BD465DF8047B704700BFB5
:10157400003802400838024080B483B000AF03460C
:101584000A46FB711346BB71FB79032B36D801A2C3
:1015940052F823F0A9150008BF150008D515000856
:1015A400EB150008184B1B68BA79012101FA02F205
:1015B4001146154A0B43136020E0144B1B68BA799B
:1015C400012101FA02F21146104A0B43136015E09F
:1015D4000F4B1B68BA79012101FA02F211460C4A39
:1015E4000B4313600AE00B4B1B68BA79012101FA23
:1015F40002F21146074A0B43136000BF00BF0C37C9
:10160400BD465DF8047B70473038024034380240F0
:10161400403802404438024080B500AF0021002029
:10162400FFF7AAFF012204210020FEF78BFF00BF71
:1016340080BD000080B500AF0120FFF7A8FD354B49
:101644001B78002B09D103210120FFF7D1FEFEF7FF
:1016540029FE3148FFF764FE59E02E4B1B78013B0D
:10166400DAB22C4B1A702D48FFF75AFE03210120E1
:10167400FFF7BEFE2A48FFF753FE264B1B78184699
:10168400FFF76EFE234B1B781946002000F0AEFADC
:101694000520FEF765FE00F081FB0520FEF746FEFF
:1016A40000F094FB0120FFF772FD03210120FFF7F6
:1016B4009FFE1B48FFF734FE164B1B781846FFF7B6
:1016C4004FFE144B1B781946002000F08FFA00F0EF
:1016D4007DFB0120FFF75BFD03210120FFF788FE5E
:1016E4000F48FFF71DFE0B4B1B781846FFF738FE1B
:1016F400084B1B781946002000F078FA4FF4FA7072
:10170400FFF7C8FCFEF7CEFD064B01221A7000BF9E
:1017140080BD00BF0000002098210008A821000817
:10172400B42100083000002080B500AF0120FFF78D
:101734002EFD344B1B780A2B09D103210120FFF71E
:1017440057FEFEF7AFFD3048FFF7EAFD57E02D4B9B
:101754001B780A2B53D82B4B1B780133DAB2294B55
:101764001A702A48FFF7DCFD03210120FFF740FE31
:101774002748FFF7D5FD234B1B781846FFF7F0FDEC
:10178400204B1B781946002000F030FA0520FEF7A4
:10179400E7FD00F003FB0520FEF7C8FD00F016FB93
:1017A4000120FFF7F4FC03210120FFF721FE184874
:1017B400FFF7B6FD134B1B781846FFF7D1FD114B0D
:1017C4001B781946002000F011FA00F0FFFA0120FE
:1017D400FFF7DDFC03210120FFF70AFE0C48FFF7A9
:1017E4009FFD084B1B781846FFF7BAFD4FF4FA70BB
:1017F400FFF750FCFEF756FD064B01221A7000BF9E
:1018040080BD00BF00000020C0210008D0210008D6
:10181400B42100083000002080B500AF0120FFF79C
:10182400B6FC00210020FFF7E3FD1148FFF778FD27
:1018340000210120FFF7DCFD0E48FFF771FDFEF7E4
:10184400E9FC00F0ABFA00210020FFF7D1FD0848C5
:10185400FFF766FD00210120FFF7CAFD0548FFF7E9
:101864005FFD4FF4FA70FFF715FC00BF80BD00BFA9
:10187400D8210008E421000880B500AF0120FFF75B
:1018840086FC00210020FFF7B3FD0948FFF748FD5F
:1018940000210120FFF7ACFD0648FFF741FDFEF7EC
:1018A40001FD4FF4FA70FFF7F5FB00BF80BD00BFE8
:1018B400F0210008FC21000880B584B000AF0023AB
:1018C400BB73FFF727FE00210020FFF755FE01211F
:1018D4000020FFF751FE02210020FFF74DFE0321F7
:1018E4000020FFF749FE04210020FFF745FE0020F9
:1018F40000F0E0F8002000F01DFA0020FFF7EAFBFA
:1019040000210020FFF774FDFEF7A5FC002000F085
:10191400E3FAFFF781FE0020FFF79AFBFEF758FC7D
:101924000120FFF734FC00210020FFF761FD564839
:10193400FFF7F6FC00210120FFF75AFD4FF4FA707F
:10194400FFF7A8FB00F032FB05210120FFF750FD53
:101954000023FB7332E000F0A1FB03467B737B7B27
:10196400002B28D07B7B092B25D8FB7B07F11002A9
:1019740013447A7B03F80C2CFB7B07F1100213440D
:1019840013F80C3C1946002000F030F97B7B184614
:10199400FFF7E6FCFB7B0533DBB219460120FFF7BA
:1019A40027FD6420FFF776FB3848FFF7B9FC4FF4B6
:1019B400FA70FFF76FFBFB7B0133FB73FB7B052B9B
:1019C400C9D93B1D184600F019FA0346012B4AD128
:1019D4000120FFF7DCFB00210020FFF709FD2C4864
:1019E400FFF79EFC4FF49670FFF754FB0120FFF7BE
:1019F400CEFB2848FFF794FC274B1B781846FFF7CB
:101A0400AFFCC820FFF746FB0123BB73BB7B012B54
:101A140007D1224B224A23492348FEF765FD00F0F3
:101A240017FA002000F086FA0346012B10D1FEF7C6
:101A340004FCFEF737FC0120FFF7A9FB002100207E
:101A4400FFF7D6FC1248FFF76BFCC820FFF722FB18
:101A5400164B1B78012BE4D1012000F0FBFA134B49
:101A640000221A705CE70120FFF791FB032100209C
:101A7400FFF7BEFC0E48FFF753FC012000F0EAFA22
:101A84003220FFF707FB4BE70C2200082022000856
:101A940024220008B4210008000000207D1800085A
:101AA4001D1800082D170008391600083000002002
:101AB4002C22000880B582B000AF0346FB71FB798D
:101AC400002B46D1012200210420FEF73BFD002219
:101AD40000210420FFF728F8012201210420FEF749
:101AE40031FD002201210420FFF71EF8012202210A
:101AF4000420FEF727FD002202210420FFF714F83A
:101B0400012203210420FEF71DFD002203210420ED
:101B1400FFF70AF8012204210420FEF713FD002236
:101B240004210420FFF700F8012205210420FEF718
:101B340009FD002205210420FEF7F6FF01220621FB
:101B44000420FEF7FFFC002206210420FEF7ECFF30
:101B540048E0FB79012B45D1012200210320FEF747
:101B6400F1FC002200210320FEF7DEFF0122012107
:101B74000320FEF7E7FC002201210320FEF7D4FF37
:101B8400012202210320FEF7DDFC002202210320B2
:101B9400FEF7CAFF012203210320FEF7D3FC002233
:101BA40003210320FEF7C0FF012204210320FEF7D6
:101BB400C9FC002204210320FEF7B6FF01220521FF
:101BC4000320FEF7BFFC002205210320FEF7ACFF33
:101BD400012206210320FEF7B5FC00220621032082
:101BE400FEF7A2FF00BF0837BD4680BD80B483B0B6
:101BF40000AF03460A46FB711346BB71FB79002B09
:101C040045D1BB79002B03D1484B3F221A6086E0B3
:101C1400BB79012B03D1454B06221A607FE0BB79C7
:101C2400022B03D1414B5B221A6078E0BB79032B72
:101C340003D13E4B4F221A6071E0BB79042B03D1D0
:101C44003A4B66221A606AE0BB79052B03D1374B05
:101C54006D221A6063E0BB79062B03D1334B7D22DE
:101C64001A605CE0BB79072B03D1304B07221A6062
:101C740055E0BB79082B03D12C4B7F221A604EE030
:101C8400BB79092B4BD1294B6F221A6047E0FB79B2
:101C9400012B44D1BB79002B03D1254B3F221A6081
:101CA4003DE0BB79012B03D1214B06221A6036E0BB
:101CB400BB79022B03D11E4B5B221A602FE0BB7948
:101CC400032B03D11A4B4F221A6028E0BB79042B53
:101CD40003D1174B66221A6021E0BB79052B03D18F
:101CE400134B6D221A601AE0BB79062B03D1104BFB
:101CF4007D221A6013E0BB79072B03D10C4B07221A
:101D04001A600CE0BB79082B03D1094B7F221A60BF
:101D140005E0BB79092B02D1054B6F221A6000BF85
:101D24000C37BD465DF8047B704700BF14100240B9
:101D3400140C024080B582B000AF0346FB71FB79FE
:101D4400002B10D1012207210420FEF7FBFB002207
:101D540007210420FEF7E8FE0E4B1B680D4A43F0F2
:101D64008003136012E0FB79012B0FD101220721BC
:101D74000320FEF7E7FB002207210320FEF7D4FE31
:101D8400054B1B68044A43F08003136000BF083707
:101D9400BD4680BD14100240140C024080B500AF53
:101DA4000120FFF7F4F903210020FFF721FB064887
:101DB400FFF7B6FA0020FEF783FA4FF4FA70FFF744
:101DC40069F900BF80BD00BF3C22000880B500AFA8
:101DD4000120FFF7DCF903210020FFF709FB064887
:101DE400FFF79EFA0120FEF76BFA40F2DC50FFF792
:101DF40051F900BF80BD00BF4C22000880B483B0FD
:101E040000AF78607B681B78012B1AD17B680133A3
:101E14001B78022B15D17B6802331B78032B10D15E
:101E24007B6803331B78042B0BD17B6804331B784A
:101E3400052B06D17B6805331B78062B01D10123C2
:101E440000E0002318460C37BD465DF8047B70475C
:101E540080B500AFFFF7F6FAFEF758FA0020FEF758
:101E640065FA02210020FEF797FA0120FEF75EFAD8
:101E740002210120FEF790FA0420FEF757FA02210E
:101E84000420FEF789FA0520FEF750FA0221052006
:101E9400FEF782FA0E210320FFF76EFB06210A20CB
:101EA400FFF71EFB07210A20FFF71AFB0A21052072
:101EB400FFF716FB17210720FFF712FB0620FFF799
:101EC400CFFA0720FFF7CCFA0A20FFF7C9FA172048
:101ED400FFF7C6FA00BF80BD80B483B000AF0346ED
:101EE400FB71FB79002B0CD1104B1B680F4A23F0BC
:101EF400805313600D4B1B680C4A23F0005313608E
:101F04000EE0FB79012B0BD1094B1B68084A23F423
:101F140080631360064B1B68054A23F40063136057
:101F240000BF0C37BD465DF8047B7047000C0240CF
:101F34000004024080B485B000AF0346FB71FB7916
:101F4400002B12D1174B1B689B0BDBB203F0010370
:101F5400BB73BB7B012B02D10123FB731AE0BB7B58
:101F6400002B17D10023FB7314E0FB79012B11D153
:101F74000D4B1B685B09DBB203F00103BB73BB7B36
:101F8400012B02D10123FB7304E0BB7B002B01D1A5
:101F94000023FB73FB7B18461437BD465DF8047BB6
:101FA400704700BF100C02401004024080B500AF1F
:101FB40011210220FFF7E0FA00210020FFF7DCFAEC
:101FC400022202210020FEF7BDFA00220221002095
:101FD400FEF7AAFD022203210020FEF7B3FA002235
:101FE40003210020FEF7A0FD072202210020FEF7B6
:101FF40051FF072203210020FEF74CFF144B40F24F
:1020040083629A60124BDB68114A43F00403D36085
:102014000F4BDB680E4A43F00803D3600C4BDB68BC
:102024000B4A23F48053D360094B1B69084A23F4F9
:1020340080531361064B1B69054A23F40053136153
:10204400034BDB68024A43F40053D36000BF80BDF6
:102054000044004080B485B000AF0346FB71002308
:10206400FB600C4AFB79536002E0FB680133FB60C0
:10207400084B1B68DB0903F00103002B03D1FB6849
:10208400054A9342F1D900BF1437BD465DF8047B7D
:10209400704700BF00440040FFE0F50580B483B002
:1020A40000AF00237B6002E07B6801337B600A4B56
:1020B4001B685B0903F00103002B03D17B68074A0B
:1020C4009342F1D9044B5B68DBB218460C37BD462A
:1020D4005DF8047B704700BF00440040FFE0F50555
:1020E4000D488546AFF300800C480D490D4A002386
:1020F40002E0D458C4500433C4188C42F9D30A4AB9
:102104000A4C002301E013600432A242FBD300F026
:1021140011F8FFF7D1FBFEE700800120000000204A
:102124000400002064220008040000203400002081
:10213400FEE7000070B50D4D0D4C641BA410002685
:10214400A64209D10B4D0C4C00F018F8641BA410E6
:102154000026A64205D170BD55F8043B98470136C8
:10216400EEE755F8043B98470136F2E75C22000895
:102174005C2200085C22000860220008F8B500BF59
:10218400F8BC08BC9E467047F8B500BFF8BC08BC54
:042194009E467047AC
:102198005041524B494E4720454D5054590000007C
:1021A800436172204C656176696E6700546F746193
:1021B8006C20436172733A005041524B494E47209C
:1021C80046554C4C0000000043415220494E000047
:1021D8004649524520414C41524D0000504C454122
:1021E8005345204558495400506C65617365205724
:1021F800616974004F42535443414C4520464F5542
:102208004E440000496E7365727420506173737791
:102218006F72643A000000002A00000057656C6382
:102228006F6D650057726F6E672050617373776FBB
:1022380072640000444F4F52204F50454E494E475C
:1022480000000000444F4F5220434C4F53494E4723
:042258000000000082
:04225C00B9010008BC
:0422600095010008DC
:042264000400000072
:04000005080020E5EA
:00000001FF
