:020000040800F2
:1000000000800120B1100008011100080111000852
:100010000111000801110008011100080000000092
:1000200000000000000000000000000001110008B6
:100030000111000800000000011100080111000872
:100040000000000001110008011100080111000862
:100050000111000801110008D5010008F90100088C
:100060000111000801110008011100080000000042
:100070000000000000000000000000000000000080
:100080000000000000000000011100080000000056
:100090000000000000000000000000000111000846
:1000A00001110008011100080111000801110008E8
:1000B00001110008011100080000000001110008F2
:1000C0000111000801110008011100086D0F00085E
:1000D0000111000800000000000000000000000006
:1000E00001110008011100080111000800000000C2
:1000F0000000000000000000000000000000000000
:1001000000000000011100080000000001110008BB
:1001100000000000000000000000000000000000DF
:1001200000000000000000000000000000000000CF
:1001300000000000000000000000000000000000BF
:100140000000000000000000000000000111000895
:10015000000000000000000000000000000000009F
:10016000011100080111000800000000000000005B
:10017000000000000000000000000000000000007F
:100180000000000001110008000000000000000055
:040190000111000851
:1001940010B5054C237833B9044B13B10448AFF3BD
:1001A40000800123237010BD000000200000000027
:1001B4004C11000808B5034B1BB103490348AFF3C6
:1001C400008008BD00000000040000204C1100085D
:1001D40080B500AF054B1B689847054B5B69044A23
:1001E40043F00103536100BF80BD00BF1C00002029
:1001F400003C014080B500AF054B1B689847054B98
:100204005B69044A43F00203536100BF80BD00BF31
:1002140020000020003C014080B483B000AF0346BE
:10022400FB710B46BB7113467B71FB79052B00F206
:10023400D98201A252F823F0550200083F030008B6
:10024400270400080F05000803060008EB06000851
:100254007B79032B00F2BB8201A252F823F000BF8A
:1002640075020008A9020008DB0200080D0300085B
:10027400AD4B1B68BA795200012101FA02F2D24354
:100284001146A94A0B401360A74B1B68BA79520068
:100294000132012101FA02F2D2431146A24A0B4073
:1002A400136049E0A04B1B68BA795200012101FA9E
:1002B40002F211469C4A0B4313609B4B1B68BA79AC
:1002C40052000132012101FA02F2D2431146964A48
:1002D4000B40136030E0944B1B68BA795200012143
:1002E40001FA02F2D24311468F4A0B4013608E4B3F
:1002F4001B68BA7952000132012101FA02F2114657
:10030400894A0B43136017E0874B1B68BA79520084
:10031400012101FA02F21146834A0B431360824B16
:100324001B68BA7952000132012101FA02F2114626
:100334007D4A0B43136000BF49E27B79032B00F233
:10034400488201A252F823F05D03000891030008DB
:10035400C3030008F5030008744B1B68BA79520004
:10036400012101FA02F2D2431146704A0B40136094
:100374006E4B1B68BA7952000132012101FA02F274
:10038400D2431146694A0B40136049E0674B1B682E
:10039400BA795200012101FA02F21146634A0B4371
:1003A4001360624B1B68BA7952000132012101FAD1
:1003B40002F2D24311465D4A0B40136030E05B4BBE
:1003C4001B68BA795200012101FA02F2D2431146A4
:1003D400564A0B401360554B1B68BA7952000132E0
:1003E400012101FA02F21146504A0B43136017E04F
:1003F4004E4B1B68BA795200012101FA02F21146F0
:100404004A4A0B431360494B1B68BA7952000132C4
:10041400012101FA02F21146444A0B43136000BF62
:10042400D7E17B79032B00F2D68101A252F823F0A5
:100434004504000879040008AB040008DD04000842
:100444003B4B1B68BA795200012101FA02F2D243F4
:100454001146374A0B401360354B1B68BA7952007A
:100464000132012101FA02F2D2431146304A0B4013
:10047400136049E02E4B1B68BA795200012101FA3E
:1004840002F211462A4A0B431360294B1B68BA79BE
:1004940052000132012101FA02F2D2431146244AE8
:1004A4000B40136030E0224B1B68BA7952000121E3
:1004B40001FA02F2D24311461D4A0B4013601C4B51
:1004C4001B68BA7952000132012101FA02F2114685
:1004D400174A0B43136017E0154B1B68BA79520097
:1004E400012101FA02F21146114A0B431360104B29
:1004F4001B68BA7952000132012101FA02F2114655
:100504000B4A0B43136000BF65E17B79032B00F2B8
:10051400648101A252F823F0390500086D05000832
:100524009F050008D10500080000024000040240B5
:1005340000080240AE4B1B68BA795200012101FA4F
:1005440002F2D2431146AA4A0B401360A84B1B681F
:10055400BA7952000132012101FA02F2D243114662
:10056400A34A0B40136049E0A14B1B68BA795200BF
:10057400012101FA02F211469D4A0B4313609C4B80
:100584001B68BA7952000132012101FA02F2D24306
:100594001146974A0B40136030E0954B1B68BA79BB
:1005A4005200012101FA02F2D2431146904A0B4053
:1005B40013608F4B1B68BA7952000132012101FA92
:1005C40002F211468A4A0B43136017E0884B1B68FA
:1005D400BA795200012101FA02F21146844A0B430E
:1005E4001360834B1B68BA7952000132012101FA6E
:1005F40002F211467E4A0B43136000BFEDE07B79A3
:10060400032B00F2EC8001A252F823F0210600082B
:100614005506000887060008B9060008754B1B68D4
:10062400BA795200012101FA02F2D2431146714A09
:100634000B4013606F4B1B68BA79520001320121E1
:1006440001FA02F2D24311466A4A0B40136049E0B0
:10065400684B1B68BA795200012101FA02F2114673
:10066400644A0B431360634B1B68BA79520001322E
:10067400012101FA02F2D24311465E4A0B40136093
:1006840030E05C4B1B68BA795200012101FA02F296
:10069400D2431146574A0B401360564B1B68BA7934
:1006A40052000132012101FA02F21146514A0B4370
:1006B400136017E04F4B1B68BA795200012101FA0D
:1006C40002F211464B4A0B4313604A4B1B68BA793A
:1006D40052000132012101FA02F21146454A0B434C
:1006E400136000BF7BE07B79032B7AD801A252F818
:1006F40023F000BF090700083D0700086F07000842
:10070400A10700083C4B1B68BA795200012101FA89
:1007140002F2D2431146384A0B401360364B1B6831
:10072400BA7952000132012101FA02F2D243114690
:10073400314A0B40136049E02F4B1B68BA795200D1
:10074400012101FA02F211462B4A0B4313602A4B92
:100754001B68BA7952000132012101FA02F2D24334
:100764001146254A0B40136030E0234B1B68BA79CD
:100774005200012101FA02F2D24311461E4A0B40F3
:1007840013601D4B1B68BA7952000132012101FA32
:1007940002F21146184A0B43136017E0164B1B680C
:1007A400BA795200012101FA02F21146124A0B43AE
:1007B4001360114B1B68BA7952000132012101FA0E
:1007C40002F211460C4A0B43136000BF09E000BF5C
:1007D40008E000BF06E000BF04E000BF02E000BF85
:1007E40000E000BF00BF0C37BD465DF8047B7047D6
:1007F400000C024000100240001C024080B483B090
:1008040000AF0346FB710B46BB7113467B71FB794A
:10081400052B00F2C38001A252F823F03908000826
:1008240075080008B1080008ED0800082909000847
:10083400650900087B79002B02D0012B0CD0ADE0B8
:10084400594B1B68BA79012101FA02F2D2431146CD
:10085400554A0B4013600AE0534B1B68BA790121D7
:1008640001FA02F21146504A0B43136000BF95E0AF
:100874007B79002B02D0012B0CD08FE04B4B1B68F3
:10088400BA79012101FA02F2D2431146474A0B40D8
:1008940013600AE0454B1B68BA79012101FA02F2A0
:1008A4001146424A0B43136000BF77E07B79002B6B
:1008B40002D0012B0CD071E03D4B1B68BA790121A9
:1008C40001FA02F2D2431146394A0B4013600AE09E
:1008D400374B1B68BA79012101FA02F21146344AF6
:1008E4000B43136000BF59E07B79002B02D0012B2E
:1008F4000CD053E02F4B1B68BA79012101FA02F2A4
:10090400D24311462B4A0B4013600AE0294B1B6863
:10091400BA79012101FA02F21146264A0B43136007
:1009240000BF3BE07B79002B02D0012B0CD035E0DB
:10093400214B1B68BA79012101FA02F2D243114614
:100944001D4A0B4013600AE01B4B1B68BA79012156
:1009540001FA02F21146184A0B43136000BF1DE06E
:100964007B79002B02D0012B0CD016E0134B1B68B3
:10097400BA79012101FA02F2D24311460F4A0B401F
:1009840013600AE00D4B1B68BA79012101FA02F2E7
:1009940011460A4A0B43136000BF00BF00BF0C3767
:1009A400BD465DF8047B7047040002400404024025
:1009B40004080240040C024004100240041C0240DB
:1009C40080B483B000AF03463A60FB710B46BB7141
:1009D400FB79052B00F2B28001A252F823F000BF8C
:1009E400FD090008330A0008690A00089F0A000884
:1009F400D50A00080B0B0008BB79072B0AD8534B08
:100A04001A68BB799B00396801FA03F34F49134311
:100A14000B6094E04E4B1A68BB7903F007039B000C
:100A2400396801FA03F34A4913430B6087E0BB7941
:100A3400072B0AD8474B1A68BB799B00396801FA1F
:100A440003F3444913430B6079E0434B1A68BB79C1
:100A540003F007039B00396801FA03F33E4913438B
:100A64000B606CE0BB79072B0AD83C4B1A68BB7946
:100A74009B00396801FA03F3384913430B605EE0C5
:100A8400374B1A68BB7903F007039B00396801FAF6
:100A940003F3334913430B6051E0BB79072B0AD8A6
:100AA400304B1A68BB799B00396801FA03F32D496E
:100AB40013430B6043E02C4B1A68BB7903F0070324
:100AC4009B00396801FA03F3274913430B6036E0AE
:100AD400BB79072B0AD8254B1A68BB799B00396868
:100AE40001FA03F3214913430B6028E0204B1A68F1
:100AF400BB7903F007039B00396801FA03F31C492F
:100B040013430B601BE0BB79072B0AD8194B1A68F7
:100B1400BB799B00396801FA03F3164913430B6050
:100B24000DE0154B1A68BB7903F007039B00396885
:100B340001FA03F3104913430B6000E000BF00BF48
:100B44000C37BD465DF8047B704700BF20000240AF
:100B540024000240200402402404024020080240F1
:100B640024080240200C0240240C024020100240C1
:100B740024100240201C0240241C024080B485B092
:100B840000AF78600023FB600DE000237B8103E06D
:100B940000BF7B8901337B817B89B3F50D7FF7D956
:100BA400FB680133FB60FA687B689A42EDD300BFAF
:100BB40000BF1437BD465DF8047B704780B483B032
:100BC40000AF00237B60144B1B68134A43F00103FE
:100BD400136002E07B6801337B600F4B1B685B088A
:100BE40003F00103002B04D17B6842F20F7293429D
:100BF400F0D90A4B1B68094A23F001031360074B21
:100C04001B68064A23F00203136000BF0C37BD467D
:100C14005DF8047B704700BF00380240083802408A
:100C240080B483B000AF03460A46FB711346BB7120
:100C3400FB79032B36D801A252F823F0510C00089B
:100C4400670C00087D0C0008930C0008184B1B6807
:100C5400BA79012101FA02F21146154A0B431360D5
:100C640020E0144B1B68BA79012101FA02F2114603
:100C7400104A0B43136015E00F4B1B68BA7901212E
:100C840001FA02F211460C4A0B4313600AE00B4BC3
:100C94001B68BA79012101FA02F21146074A0B4393
:100CA400136000BF00BF0C37BD465DF8047B70477E
:100CB4003038024034380240403802404438024060
:100CC40080B400AF3E4B1B683D4A23F00103136020
:100CD4003B4B1B683A4A23F002031360384B1B68F2
:100CE400374A23F004031360354B1B68344A23F05E
:100CF40008031360324B1B68314A23F0100313605E
:100D04002F4B1B682E4A23F0200313602C4B1B68C7
:100D14002B4A23F040031360294B1B68284A23F015
:100D240080031360264B1B68254A43F480731360C9
:100D3400234B1B68224A23F400731360214B1B6866
:100D4400204A23F0100313601D4B1B681C4A43F414
:100D5400806313601A4B1B68194A23F40063136001
:100D6400184B1B68174A23F020031360144B1B68AD
:100D7400134A43F480531360114B1B68104A23F445
:100D8400005313600F4B1B680E4A23F0400313609B
:100D94000B4B1B680A4A43F480431360084B1B68DF
:100DA400074A23F400431360064B1B68054A23F0EB
:100DB4008003136000BFBD465DF8047B704700BF2D
:100DC400000802400408024080B483B000AF034628
:100DD400FB71FB79013B0F2B42D801A252F823F09F
:100DE400250E0008290E00082D0E0008310E0008FB
:100DF400350E0008390E00083D0E0008410E0008AB
:100E0400450E0008490E00084D0E0008510E00085A
:100E1400550E0008590E00085D0E0008610E00080A
:100E240007231EE008231CE009231AE0252318E009
:100E3400042316E0052314E0062312E02A2310E01D
:100E440001230EE002230CE003230AE02D2308E033
:100E54000D2306E0002304E03D2302E02B2300E001
:100E6400FB7918460C37BD465DF8047B704700BF1C
:100E740080B582B000AF0023FB7128E0FB7910221B
:100E840002FA03F3DA43164B1A600023BB7118E02D
:100E9400144B1B68BA79012101FA02F21340002BAA
:100EA4000CD1BB799B00DAB2FB791344DBB201337A
:100EB400DBB21846FFF788FF03460CE0BB79013329
:100EC400BB71BB79032BE3D9FB790133FB71FB794C
:100ED400032BD3D9CFE718460837BD4680BD00BFE2
:100EE400140802401008024080B582B000AFFFF73A
:100EF40065FE00210020FFF793FE01210020FFF78B
:100F04008FFE02210020FFF78BFEFFF7D9FE4FF47E
:100F1400FA70FFF733FE00F02FF800237B6017E030
:100F2400FFF7A6FF0346FB70FB78002B0DD0FB7880
:100F3400092B0AD89620FFF721FEFB78184600F00B
:100F44006FF84FF4FA70FFF719FE7B6801337B608A
:100F54007B68052BE4DD00F087F80346012BFAD10A
:100F64006420FFF70BFED8E780B400AF00BFBD4696
:100F74005DF8047B7047000080B500AF11210220AA
:100F8400FFF74EFE00210020FFF74AFE0222022155
:100F94000020FFF741F9002202210020FFF72EFC78
:100FA400022203210020FFF737F900220321002049
:100FB400FFF724FC072202210020FFF701FD07228E
:100FC40003210020FFF7FCFC144B40F283629A607B
:100FD400124BDB68114A43F00403D3600F4BDB6808
:100FE4000E4A43F00803D3600C4BDB680B4A23F42E
:100FF4008053D360094B1B69084A23F4805313615F
:10100400064B1B69054A23F400531361034BDB6849
:10101400024A43F40053D36000BF80BD0044004043
:1010240080B485B000AF0346FB710023FB600C4A1B
:10103400FB79536002E0FB680133FB60084B1B68DB
:10104400DB0903F00103002B03D1FB68054A93423B
:10105400F1D900BF1437BD465DF8047B704700BF6B
:1010640000440040FFE0F50580B483B000AF0023E6
:101074007B6002E07B6801337B600A4B1B685B0981
:1010840003F00103002B03D17B68074A9342F1D993
:10109400044B5B68DBB218460C37BD465DF8047B35
:1010A400704700BF00440040FFE0F5050D48854649
:1010B400AFF300800C480D490D4A002302E0D458D8
:1010C400C4500433C4188C42F9D30A4A0A4C00238E
:1010D40001E013600432A242FBD300F011F8FFF7E1
:1010E40003FFFEE700800120000000200000002034
:1010F4006C1100080000002024000020FEE700001E
:1011040070B50D4D0D4C641BA4100026A64209D1E8
:101114000B4D0C4C00F018F8641BA4100026A642DA
:1011240005D170BD55F8043B98470136EEE755F8F4
:10113400043B98470136F2E7641100086411000883
:101144006411000868110008F8B500BFF8BC08BCB9
:101154009E467047F8B500BFF8BC08BC9E46704771
:04116400B9010008C5
:0411680095010008E5
:04000005080010B12E
:00000001FF
